:1070000058C000008BC000006FC000006DC00000C1
:107010006BC0000069C0000067C0000065C00000D0
:1070200063C0000061C000005FC000005DC00000E0
:107030005BC0000059C0000057C0000055C00000F0
:1070400053C0000051C000004FC000004DC0000000
:107050004BC0000049C0000047C0000045C0000010
:1070600043C0000041C0000009021200010100807D
:107070003209040000000000000012011001FF00AE
:10708000000881179F0C0501010200011003550043
:1070900053004200740069006E0079001203410041
:1070A00064006100660072007500690074000403EA
:1070B000090411241FBECFEFD8E0DEBFCDBF11E021
:1070C000A0E0B1E0EEE0FCE702C005900D92A63032
:1070D000B107D9F722E0A6E0B1E001C01D92A734C4
:1070E000B207E1F7B0D491C58BCFA82FB92F80E0BC
:1070F00090E041E050EA609530E009C02D91822790
:107100009795879510F084279527305EC8F36F5FB9
:10711000A8F30895EADF8D939D930895CF93CFB799
:10712000CF93C3954F9BE9F74F9B09C04F9B07C077
:107130004F9B05C04F9B03C04F9B01C0A1C0DF9375
:10714000C0912A02DD27CF5CDD4F4F9B02C0DF914B
:10715000EBCF2F930F931F9309B12FEF07FB20F96C
:107160004F933F9319B14FEF012707FB21F93BE004
:1071700031C04E7F012F19B1216028C0102F4D7FE3
:107180002260000009B129C04B7F2460012F00005C
:1071900019B12BC019B1477F28602AC04F7E09B1B1
:1071A00020612CC04F7D19B120622FC04F7B09B1E7
:1071B000206432C0422709B149934FEF00001027E5
:1071C00017FB20F919B11478C9F1297F91F2012731
:1071D00007FB21F909B1237F89F2315058F11027BB
:1071E00017FB22F919B1277E79F2012707FB23F952
:1071F0002F7C81F209B1102717FB24F92F7971F246
:1072000000C019B1012707FB25F92F7359F200C0FF
:1072100009B1102717FB26F9223040F200C019B13E
:10722000012707FB27F9243028F64F77206819B18A
:107230000000F9CF11E01CBB002717C03B5031956F
:10724000C31BD04011E01CBB0881033CE9F00B34A8
:10725000D9F0209128021981110F1213EDCF0936B0
:1072600041F10D3211F0013E39F700932F023F91A9
:107270004F911F910F912F91DF91CCB3C0FD51CF52
:10728000CF91CFBFCF91189520912F02222379F370
:1072900010912D02112311F5343012F130932D028B
:1072A0002093290210912A023BE0311B30932A02DD
:1072B00017C000912D0201308CF40AE530910501D0
:1072C00034FD10C000930501CDE1D2E00FC0279539
:1072D000A8F45150A9F4220F0000F9CF4AE503C0E9
:1072E00042ED01C0432FC4E1D0E032E01AB114688E
:1072F0005F9A1AB90BB120E414E85F93012756E0B6
:107300000BB9279520F4515021F4220FF9CF012712
:1073100056E000003B5A0BB9D0F2279528F45150A3
:1073200029F4220F0000F9CF012756E027950BB969
:1073300020F4515021F4220FF9CF012756E0299172
:1073400033230BB921F60B7710912E02110FC65182
:10735000D0400BB911F01093280211E01CBB00685B
:107360001AB11B77402F4B775F9100C000C00BB95B
:107370001AB94BB97CCF809115018823A1F0F894FC
:10738000E0911601F0911701329785E087BFE895EB
:10739000789407B600FCFDCFF89481E187BFE895AB
:1073A0007894109215010895CF92DF92EF92FF9298
:1073B0000F931F93CF93DF9310912D02135017FD5E
:1073C00083C180912A02CCE0D0E0C81BD109CF5CF8
:1073D000DD4F01E000930801809129028D3209F010
:1073E00002C1183009F06EC183EC80931D028AE55A
:1073F00080930501109219018881807609F48CC070
:1074000010920A012D9A8981882309F4DCC1813008
:1074100009F4DBC1863021F4AEDF00931801D7C137
:10742000873009F05CC0A7DF8BE091E090932C02DD
:1074300080932B028B8180930D019A81903349F4C4
:107440008111C6C0EC81E370F0E0E050FF4F808115
:1074500043C0903561F4811118C08C818111B8C08E
:1074600089E0E0E0F0E080935700849135C09835E2
:1074700029F58830B9F48C818111AAC089E0E3E054
:10748000F0E080935700849127C0883009F0A0C0B5
:107490008C8181119DC089E0E2E0F0E0809357008B
:1074A00084911AC0811194C08C81811191C089E0AE
:1074B000E1E0F0E08093570084910EC0983309F02A
:1074C00087C0811185C08C81811182C0E0E0F0E02D
:1074D00081E280935700849180930E0179C08E30B1
:1074E00011F449DF72C1883011F445DF70C12C817D
:1074F0003D8130931701209316019E8190931301D3
:1075000097EF980F943008F062C1809314018A308D
:1075100009F45FC130DF5DC18A8110922602998132
:10752000911106C01092270226E232E082E04BC0A1
:10753000953019F480932E0238C0963081F59B81E6
:10754000913019F48AE790E704C0923041F488E65C
:1075500090E790932C0280932B0282E11CC0933021
:10756000C9F4811108C08EEA90E790932C028093B1
:107570002B0284E010C0813019F48CE990E7E9CF48
:10758000823041F48CE890E790932C0280932B0298
:1075900080E101C080E090E4909319011AC0983016
:1075A00079F0993031F48093300226E232E080E0C5
:1075B0000AC081E09A3009F080E026E232E003C0A0
:1075C00020E332E081E030932C0220932B0201C0B3
:1075D00084E09F81911104C09E81981708F4892F3F
:1075E000809304016FC08091190187FF6BC0809167
:1075F0001301811708F4182F082F011B00931301A2
:10760000809114018C30C1F4DC2EEC2EFD2E8E2DD9
:107610008D19811708F052C0D7016D917D018091BD
:107620001601909117019C012F5F3F4F3093170176
:1076300020931601DCD2EBCF8A3009F03FC07E01E7
:1076400083E0C82EDD24D3948E2D8C1B811708F087
:1076500033C080911601909117018F779927892B5C
:10766000F9F0D0921501F894E0911601F09117010C
:10767000D7018D919D917D010C01D7BEE895112414
:1076800078948091160190911701029690931701BA
:10769000809316018F779927892BB1F66CDED4CFB2
:1076A000F894E0911601F0911701C7BEE89578941F
:1076B00007B600FCFDCFD5CF10920901011102C021
:1076C0001092040110922D028091050184FF70C078
:1076D000809104018F3F09F46BC0C82F893008F0F6
:1076E000C8E08C1B8093040190911D0288E88927D3
:1076F00080931D02CC2309F44FC03091190137FF4C
:107700002DC0809113018C1708F4C82F8C1B809317
:107710001301D09114010EE112E06801802F8C1941
:107720008C1708F039C0E0901601F0901701DB309B
:1077300029F4C70154D2F801808306C0D93021F45E
:10774000F7018491D8018C930F5F1F4FBFEFEB1AA5
:10775000FB0AF0921701E0921601E0CF80912B0214
:1077600090912C022C2F280FAEE1B2E0FC0136FFE5
:1077700006C034913D9331962E13FBCF04C0319156
:107780003D932E13FCCF01962FEF2C0F820F911DEE
:1077900090932C0280932B026C2F8EE192E0BADC46
:1077A000CC5FCC3019F08FEF80930401C0930501BA
:1077B00084E199B19478B9F48150D9F710922E02EE
:1077C0001092280210C088E004CF81E002CF80E050
:1077D00000CF888187FF05C08E8190E890931901C2
:1077E000FFCE8FEFFACFDF91CF911F910F91FF90D6
:1077F000EF90DF90CF9008959091C00095FFFCCF5F
:107800008093C6000895CF92DF92EF92FF921D9A67
:1078100080E4C82E82E4D82E8FE0E82EF12C8091EF
:10782000C00087FD10C08AE0C81AD108E108F1083D
:107830001C141D041E041F0414F00E94830088E21F
:107840008A95F1F7ECCF8091C6001D9AFF90EF90DA
:10785000DF90CF900895D7DF803221F484E1CCDF30
:1078600080E0089581E00895CF93C82FCCDFC15008
:10787000E9F7F1DF811182E0CF910895CF93DF9393
:107880008091C00087FFCDC0BEDF813481F4BBDFB3
:10789000C82FE1DF8111BDC0C23811F480E005C0FE
:1078A000C13811F485E001C083E0A6DFB6C08234A0
:1078B00011F484E103C0853429F485E0D5DF81111A
:1078C000A8C0ABC0853569F49EDFC82F9CDF2C2F84
:1078D00030E0382B220F331F30931C0120931B0103
:1078E0009AC0863529F484E0BFDF811192C0D6CFDB
:1078F000843609F056C087DF86DF80931A0183DF64
:10790000E0911B01F0911C01E11580E7F80718F4E4
:1079100083E087BFE895CDE1D1E075DF8993809161
:107920001A01815080931A018111F7CFE0911B0158
:10793000F0911C01E11580E7F80718F083E087BF9C
:10794000E89589DF811165C007B600FCFDCF209165
:107950001B0130911C0180911D01ADE1B1E0A90135
:107960004D51514061E0FD01E40FF51F1296ED010C
:107970002197788190E0972B0C0167BFE89511243F
:10798000E1E0AD39BE0711F08C91EDCF85E0F90152
:1079900087BFE89507B600FCFDCF81E187BFE8957A
:1079A0003CC08437D1F42FDF2EDF80931A012BDF08
:1079B00052DF81112EC0E0911B01F0911C018591D5
:1079C000F0931C01E0931B0117DF80911A01815095
:1079D00080931A018111EFCF20C0853749F43BDF36
:1079E000811117C08EE108DF85E906DF8FE05DCFEA
:1079F000813589F499E088E10FB6F894A8958093D1
:107A000060000FBE9093600026DF811102C080E10C
:107A1000F3DE82E007C01FDF52CF80E1EDDE81E0C0
:107A200001C080E0DF91CF91089582E08093C00093
:107A300088E18093C10086E08093C2008CE080934F
:107A4000C400509A08950F931F93CF93DF9384B788
:107A5000877F84BF0FB6F894A895809160008861F5
:107A600080936000109260000FBEE0E0F0E085912E
:107A70009491019621F481E08093090102C0109253
:107A8000090181E085BF82E085BF85E080938100A8
:107A9000259A80916900826080936900E89A579ADC
:107AA0002D9A8091840090918500803A9F40C8F380
:107AB0002D985798789481E080938100B6DF00E09C
:107AC000C0E0D0E010E070DCD9DE813019F4109213
:107AD0000A0107C0823029F480910901882309F442
:107AE0004FC080910801882349F080910A018B30B2
:107AF00028F080910901882309F442C0809108018F
:107B0000811108C080910A01843020F08091090120
:107B10008823B1F180911801811132C02091840035
:107B200030918500B09B1AC0B09A809108018823DB
:107B300061F02D9A209721F481E0011180E0082F57
:107B4000011102C0D25001C0DE5F1F5F183B30F050
:107B500080910A018F5F80930A0110E080910801F3
:107B6000882329F0C217D30708F0ADCF07C0812FB3
:107B70008F7D81508F3010F42D9AA5CF2D98A3CFF3
:107B80002D98259885E080938100109285001092B1
:107B9000840080911801882349F08091840090919D
:107BA0008500803A9F4010F4FFDBF3CF10928100F4
:107BB00010928500109284001DBA1092690081E035
:107BC00085BF15BEF894E0910601F0910701099573
:107BD00080E090E0DF91CF911F910F910895F99986
:107BE000FECF92BD81BDF89A992780B50895262FC2
:107BF000F999FECF1FBA92BD81BD20BD0FB6F89492
:0E7C0000FA9AF99A0FBE01960895F894FFCFF4
:067C0E001E950F00FF5A55
:040000030000700089
:00000001FF
